{
  "contractName": "DogsUpdated",
  "abi": [
    {
      "inputs": [],
      "payable": false,
      "stateMutability": "nonpayable",
      "type": "constructor"
    },
    {
      "constant": true,
      "inputs": [],
      "name": "_initialized",
      "outputs": [
        {
          "internalType": "bool",
          "name": "",
          "type": "bool"
        }
      ],
      "payable": false,
      "stateMutability": "view",
      "type": "function"
    },
    {
      "constant": true,
      "inputs": [],
      "name": "owner",
      "outputs": [
        {
          "internalType": "address",
          "name": "",
          "type": "address"
        }
      ],
      "payable": false,
      "stateMutability": "view",
      "type": "function"
    },
    {
      "constant": false,
      "inputs": [
        {
          "internalType": "address",
          "name": "_owner",
          "type": "address"
        }
      ],
      "name": "initialize",
      "outputs": [],
      "payable": false,
      "stateMutability": "nonpayable",
      "type": "function"
    },
    {
      "constant": true,
      "inputs": [],
      "name": "getNumberOfDogs",
      "outputs": [
        {
          "internalType": "uint256",
          "name": "",
          "type": "uint256"
        }
      ],
      "payable": false,
      "stateMutability": "view",
      "type": "function"
    },
    {
      "constant": false,
      "inputs": [
        {
          "internalType": "uint256",
          "name": "toSet",
          "type": "uint256"
        }
      ],
      "name": "setNumberOfDogs",
      "outputs": [],
      "payable": false,
      "stateMutability": "nonpayable",
      "type": "function"
    }
  ],
  "bytecode": "0x608060405234801561001057600080fd5b506100203361002560201b60201c565b61009e565b600560149054906101000a900460ff161561003f57600080fd5b80600560006101000a81548173ffffffffffffffffffffffffffffffffffffffff021916908373ffffffffffffffffffffffffffffffffffffffff1602179055506001600560146101000a81548160ff02191690831515021790555050565b610324806100ad6000396000f3fe608060405234801561001057600080fd5b50600436106100575760003560e01c806314861b221461005c5780631680a5ed1461008a5780633072cf60146100a85780638da5cb5b146100ca578063c4d66de814610114575b600080fd5b6100886004803603602081101561007257600080fd5b8101908080359060200190929190505050610158565b005b6100926101f8565b6040518082815260200191505060405180910390f35b6100b061023d565b604051808215151515815260200191505060405180910390f35b6100d2610250565b604051808273ffffffffffffffffffffffffffffffffffffffff1673ffffffffffffffffffffffffffffffffffffffff16815260200191505060405180910390f35b6101566004803603602081101561012a57600080fd5b81019080803573ffffffffffffffffffffffffffffffffffffffff169060200190929190505050610276565b005b600560009054906101000a900473ffffffffffffffffffffffffffffffffffffffff1673ffffffffffffffffffffffffffffffffffffffff163373ffffffffffffffffffffffffffffffffffffffff16146101b257600080fd5b80600060405180807f446f677300000000000000000000000000000000000000000000000000000000815250600401905090815260200160405180910390208190555050565b60008060405180807f446f6773000000000000000000000000000000000000000000000000000000008152506004019050908152602001604051809103902054905090565b600560149054906101000a900460ff1681565b600560009054906101000a900473ffffffffffffffffffffffffffffffffffffffff1681565b600560149054906101000a900460ff161561029057600080fd5b80600560006101000a81548173ffffffffffffffffffffffffffffffffffffffff021916908373ffffffffffffffffffffffffffffffffffffffff1602179055506001600560146101000a81548160ff0219169083151502179055505056fea265627a7a72315820c517f3b676df45a67b7aaf4102bf4a2ffe705f7d15164cbce8785ea71febc99d64736f6c63430005100032",
  "source": "// SPDX-License-Identifier: MIT\npragma solidity >=0.4.22 <0.9.0;\n\nimport \"./Storage.sol\";\n\ncontract DogsUpdated is Storage {\n\n    modifier onlyOwner() {\n        require(msg.sender == owner);\n        _;\n    }\n\n    constructor() public {\n        initialize(msg.sender);\n    }\n\n    function initialize(address _owner) public {\n        require(!_initialized);\n        owner = _owner;\n        _initialized = true;\n    }\n\n    function getNumberOfDogs() public view returns(uint256) {\n        return _uintStorage[\"Dogs\"];\n    }\n\n    function setNumberOfDogs(uint256 toSet) public onlyOwner {\n        _uintStorage[\"Dogs\"] = toSet;\n    }\n\n}\n",
  "sourcePath": "/Users/aoikurokawa/Documents/Blockchain/Ethereum/UpgrageExample/proxyContract/contracts/DogsUpdated.sol",
  "compiler": {
    "name": "solc",
    "version": "0.5.16+commit.9c3226ce.Emscripten.clang"
  },
  "schemaVersion": "3.3.4",
  "updatedAt": "2021-03-05T23:39:27.764Z",
  "networkType": "ethereum",
  "devdoc": {
    "methods": {}
  },
  "userdoc": {
    "methods": {}
  }
}